DATE                                              20220801                                          093444
RELEASE                                           752
LOADED_AGRS                                       /MSFTSEN/SENTINEL_AGENT_BASIC
AGR_DEFINE                                        001/MSFTSEN/SENTINEL_AGENT_BASIC                               SENTINEL    20220731120608000000000000000SENTINEL    20220801093415000000000000000
AGR_1250                                          001/MSFTSEN/SENTINEL_AGENT_BASIC 000001S_ADMI_FCDT-NL31000600    U  O000010
AGR_1250                                          001/MSFTSEN/SENTINEL_AGENT_BASIC 000002S_APPL_LOGT-NL31000600    U  O000000
AGR_1250                                          001/MSFTSEN/SENTINEL_AGENT_BASIC 000003S_RFC     T-NL31000600    U  O000004
AGR_1250                                          001/MSFTSEN/SENTINEL_AGENT_BASIC 000004S_SAL     T-NL31000600    U  O000000
AGR_1250                                          001/MSFTSEN/SENTINEL_AGENT_BASIC 000005S_TABU_NAMT-NL31000600    U  O000000
AGR_1250                                          001/MSFTSEN/SENTINEL_AGENT_BASIC 000006S_TCODE   T-NL31000600    U  O000000
AGR_1250                                          001/MSFTSEN/SENTINEL_AGENT_BASIC 000007S_TRANSPRTT-NL31000600    U  O000000
AGR_1250                                          001/MSFTSEN/SENTINEL_AGENT_BASIC 000008S_USER_GRPT-NL31000600    U  O000013
AGR_1250                                          001/MSFTSEN/SENTINEL_AGENT_BASIC 000009S_USER_GRPT-NL31000601    U  O000000
AGR_1250                                          001/MSFTSEN/SENTINEL_AGENT_BASIC 000010S_XMI_PRODT-NL31000600    U  O000017
AGR_1251                                          001/MSFTSEN/SENTINEL_AGENT_BASIC 000001S_ADMI_FCDT-NL31000600    S_ADMI_FCDAUDD                                                                            U  O000011
AGR_1251                                          001/MSFTSEN/SENTINEL_AGENT_BASIC 000002S_RFC     T-NL31000600    ACTVT     16                                                                              U  O000005
AGR_1251                                          001/MSFTSEN/SENTINEL_AGENT_BASIC 000003S_RFC     T-NL31000600    RFC_NAME  BAPI_SYSTEM_MT_GETALERTDATA                                                     U  O000006
AGR_1251                                          001/MSFTSEN/SENTINEL_AGENT_BASIC 000004S_RFC     T-NL31000600    RFC_NAME  BAPI_SYSTEM_MTE_GETTREE                                                         U  O000006
AGR_1251                                          001/MSFTSEN/SENTINEL_AGENT_BASIC 000005S_RFC     T-NL31000600    RFC_NAME  BAPI_SYSTEM_MTE_GETTIDBYNAME                                                    U  O000006
AGR_1251                                          001/MSFTSEN/SENTINEL_AGENT_BASIC 000006S_RFC     T-NL31000600    RFC_NAME  BAPI_SYSTEM_MTE_GETPERFCURVAL                                                   U  O000006
AGR_1251                                          001/MSFTSEN/SENTINEL_AGENT_BASIC 000007S_RFC     T-NL31000600    RFC_NAME  BAPI_SYSTEM_MTE_GETMLHIS                                                        U  O000006
AGR_1251                                          001/MSFTSEN/SENTINEL_AGENT_BASIC 000008S_RFC     T-NL31000600    RFC_NAME  BAPI_SYSTEM_MS_GETLIST                                                          U  O000006
AGR_1251                                          001/MSFTSEN/SENTINEL_AGENT_BASIC 000009S_RFC     T-NL31000600    RFC_NAME  BAPI_SYSTEM_MON_GETTREE                                                         U  O000006
AGR_1251                                          001/MSFTSEN/SENTINEL_AGENT_BASIC 000010S_RFC     T-NL31000600    RFC_NAME  BAPI_SYSTEM_MON_GETLIST                                                         U  O000006
AGR_1251                                          001/MSFTSEN/SENTINEL_AGENT_BASIC 000011S_RFC     T-NL31000600    RFC_NAME  BAPI_SYSTEM_ALERT_ACKNOWLEDGE                                                   U  O000006
AGR_1251                                          001/MSFTSEN/SENTINEL_AGENT_BASIC 000012S_USER_GRPT-NL31000600    ACTVT     03                                                                              U  O000014
AGR_1251                                          001/MSFTSEN/SENTINEL_AGENT_BASIC 000013S_USER_GRPT-NL31000600    CLASS     SUPER                                                                           U  O000015
AGR_1251                                          001/MSFTSEN/SENTINEL_AGENT_BASIC 000014S_XMI_PRODT-NL31000600    EXTCOMPANYMicrosoft                                                                       U  O000018
AGR_1251                                          001/MSFTSEN/SENTINEL_AGENT_BASIC 000015S_XMI_PRODT-NL31000600    EXTPRODUCTAzure Sentinel                                                                  U  O000019
AGR_1251                                          001/MSFTSEN/SENTINEL_AGENT_BASIC 000016S_XMI_PRODT-NL31000600    INTERFACE XAL                                                                             U  O000020
AGR_1251                                          001/MSFTSEN/SENTINEL_AGENT_BASIC 000017S_XMI_PRODT-NL31000600    INTERFACE XBP                                                                             U  O000020
AGR_1251                                          001/MSFTSEN/SENTINEL_AGENT_BASIC 000018S_TABU_NAMT-NL31000600    TABLE     TMSQAFILTER                                                                     U  O000000
AGR_1251                                          001/MSFTSEN/SENTINEL_AGENT_BASIC 000019S_TABU_NAMT-NL31000600    TABLE     USRACL                                                                          U  O000000
AGR_1251                                          001/MSFTSEN/SENTINEL_AGENT_BASIC 000020S_TABU_NAMT-NL31000600    TABLE     T000                                                                            U  O000000
AGR_1251                                          001/MSFTSEN/SENTINEL_AGENT_BASIC 000021S_APPL_LOGT-NL31000600    ACTVT     03                                                                              U  O000000
AGR_1251                                          001/MSFTSEN/SENTINEL_AGENT_BASIC 000022S_APPL_LOGT-NL31000600    ALG_OBJECT*                                                                               U  O000000
AGR_1251                                          001/MSFTSEN/SENTINEL_AGENT_BASIC 000023S_APPL_LOGT-NL31000600    ALG_SUBOBJ*                                                                               U  O000000
AGR_1251                                          001/MSFTSEN/SENTINEL_AGENT_BASIC 000024S_RFC     T-NL31000600    RFC_NAME  /OSP/SYSTEM_TIMEZONE                                                            U  O000006
AGR_1251                                          001/MSFTSEN/SENTINEL_AGENT_BASIC 000025S_TABU_NAMT-NL31000600    TABLE     SNCSYSACL                                                                       U  O000000
AGR_1251                                          001/MSFTSEN/SENTINEL_AGENT_BASIC 000027S_TRANSPRTT-NL31000600    TTYPE     *                                                                               U  O000000
AGR_1251                                          001/MSFTSEN/SENTINEL_AGENT_BASIC 000028S_TRANSPRTT-NL31000600    ACTVT     03                                                                              U  O000000
AGR_1251                                          001/MSFTSEN/SENTINEL_AGENT_BASIC 000029S_TABU_NAMT-NL31000600    ACTVT     03                                                                              U  O000000
AGR_1251                                          001/MSFTSEN/SENTINEL_AGENT_BASIC 000030S_TABU_NAMT-NL31000600    TABLE     BALHDR                                                                          U  O000000
AGR_1251                                          001/MSFTSEN/SENTINEL_AGENT_BASIC 000031S_TABU_NAMT-NL31000600    TABLE     CDHDR                                                                           U  O000000
AGR_1251                                          001/MSFTSEN/SENTINEL_AGENT_BASIC 000032S_RFC     T-NL31000600    RFC_NAME  RFC_SYSTEM_INFO                                                                 U  O000006
AGR_1251                                          001/MSFTSEN/SENTINEL_AGENT_BASIC 000033S_TABU_NAMT-NL31000600    TABLE     ADR6                                                                            U  O000000
AGR_1251                                          001/MSFTSEN/SENTINEL_AGENT_BASIC 000034S_RFC     T-NL31000600    RFC_TYPE  FUNC                                                                            U  O000007
AGR_1251                                          001/MSFTSEN/SENTINEL_AGENT_BASIC 000036S_RFC     T-NL31000600    RFC_NAME  TH_SERVER_LIST                                                                  U  O000006
AGR_1251                                          001/MSFTSEN/SENTINEL_AGENT_BASIC 000037S_TCODE   T-NL31000600    TCD       SM51                                                                            U  O000000
AGR_1251                                          001/MSFTSEN/SENTINEL_AGENT_BASIC 000038S_RFC     T-NL31000600    RFC_NAME  /MSFTSEN/*                                                                      U  O000006
AGR_1251                                          001/MSFTSEN/SENTINEL_AGENT_BASIC 000039S_ADMI_FCDT-NL31000600    S_ADMI_FCDSPOS                                                                            U  O000011
AGR_1251                                          001/MSFTSEN/SENTINEL_AGENT_BASIC 000045S_RFC     T-NL31000600    RFC_NAME  RFC_READ_TABLE                                                                  U  O000006
AGR_1251                                          001/MSFTSEN/SENTINEL_AGENT_BASIC 000046S_TABU_NAMT-NL31000600    TABLE     UST04                                                                           U  O000000
AGR_1251                                          001/MSFTSEN/SENTINEL_AGENT_BASIC 000047S_TABU_NAMT-NL31000600    TABLE     USR41                                                                           U  O000000
AGR_1251                                          001/MSFTSEN/SENTINEL_AGENT_BASIC 000048S_TABU_NAMT-NL31000600    TABLE     USR21                                                                           U  O000000
AGR_1251                                          001/MSFTSEN/SENTINEL_AGENT_BASIC 000049S_TABU_NAMT-NL31000600    TABLE     USR02                                                                           U  O000000
AGR_1251                                          001/MSFTSEN/SENTINEL_AGENT_BASIC 000050S_TABU_NAMT-NL31000600    TABLE     USR01                                                                           U  O000000
AGR_1251                                          001/MSFTSEN/SENTINEL_AGENT_BASIC 000051S_TABU_NAMT-NL31000600    TABLE     AGR_1251                                                                        U  O000000
AGR_1251                                          001/MSFTSEN/SENTINEL_AGENT_BASIC 000052S_TABU_NAMT-NL31000600    TABLE     AGR_DEFINE                                                                      U  O000000
AGR_1251                                          001/MSFTSEN/SENTINEL_AGENT_BASIC 000053S_TABU_NAMT-NL31000600    TABLE     AGR_PROF                                                                        U  O000000
AGR_1251                                          001/MSFTSEN/SENTINEL_AGENT_BASIC 000054S_TABU_NAMT-NL31000600    TABLE     AGR_TCODES                                                                      U  O000000
AGR_1251                                          001/MSFTSEN/SENTINEL_AGENT_BASIC 000055S_TABU_NAMT-NL31000600    TABLE     AGR_USERS                                                                       U  O000000
AGR_1251                                          001/MSFTSEN/SENTINEL_AGENT_BASIC 000056S_TABU_NAMT-NL31000600    TABLE     DBTABLOG                                                                        U  O000000
AGR_1251                                          001/MSFTSEN/SENTINEL_AGENT_BASIC 000057S_TABU_NAMT-NL31000600    TABLE     DEVACCESS                                                                       U  O000000
AGR_1251                                          001/MSFTSEN/SENTINEL_AGENT_BASIC 000058S_TABU_NAMT-NL31000600    TABLE     PAHI                                                                            U  O000000
AGR_1251                                          001/MSFTSEN/SENTINEL_AGENT_BASIC 000060S_TABU_NAMT-NL31000600    TABLE     SACF_ALERT                                                                      U  O000000
AGR_1251                                          001/MSFTSEN/SENTINEL_AGENT_BASIC 000061S_TABU_NAMT-NL31000600    TABLE     SOUD                                                                            U  O000000
AGR_1251                                          001/MSFTSEN/SENTINEL_AGENT_BASIC 000062S_TABU_NAMT-NL31000600    TABLE     USER_ADDR                                                                       U  O000000
AGR_1251                                          001/MSFTSEN/SENTINEL_AGENT_BASIC 000063S_TABU_NAMT-NL31000600    TABLE     USGRP_USER                                                                      U  O000000
AGR_1251                                          001/MSFTSEN/SENTINEL_AGENT_BASIC 000065S_RFC     T-NL31000600    RFC_NAME  RFC_GET_FUNCTION_INTERFACE                                                      U  O000006
AGR_1251                                          001/MSFTSEN/SENTINEL_AGENT_BASIC 000066S_RFC     T-NL31000600    RFC_NAME  RFCPING                                                                         U  O000006
AGR_1251                                          001/MSFTSEN/SENTINEL_AGENT_BASIC 000067S_RFC     T-NL31000600    RFC_NAME  DDIF_FIELDINFO_GET                                                              U  O000006
AGR_1251                                          001/MSFTSEN/SENTINEL_AGENT_BASIC 000068S_RFC     T-NL31000600    RFC_NAME  CTS_API_READ_CHANGE_REQUEST                                                     U  O000006
AGR_1251                                          001/MSFTSEN/SENTINEL_AGENT_BASIC 000069S_RFC     T-NL31000600    RFC_NAME  BAPI_XMI_LOGON                                                                  U  O000006
AGR_1251                                          001/MSFTSEN/SENTINEL_AGENT_BASIC 000070S_RFC     T-NL31000600    RFC_NAME  BAPI_XMI_LOGOFF                                                                 U  O000006
AGR_1251                                          001/MSFTSEN/SENTINEL_AGENT_BASIC 000071S_RFC     T-NL31000600    RFC_NAME  BAPI_XBP_JOB_JOBLOG_READ                                                        U  O000006
AGR_1251                                          001/MSFTSEN/SENTINEL_AGENT_BASIC 000072S_RFC     T-NL31000600    RFC_NAME  BAPI_XBP_APPL_LOG_CONTENT_GET                                                   U  O000006
AGR_1251                                          001/MSFTSEN/SENTINEL_AGENT_BASIC 000073S_RFC     T-NL31000600    RFC_NAME  BAPI_USER_GET_DETAIL                                                            U  O000006
AGR_1251                                          001/MSFTSEN/SENTINEL_AGENT_BASIC 000074S_SAL     T-NL31000600    SAL_ACTVT SHOW_LOG                                                                        U  O000000
AGR_1251                                          001/MSFTSEN/SENTINEL_AGENT_BASIC 000075S_USER_GRPT-NL31000601    CLASS     SUPER                                                                           U  O000000
AGR_1251                                          001/MSFTSEN/SENTINEL_AGENT_BASIC 000076S_USER_GRPT-NL31000601    ACTVT     05                                                                              U  O000000
AGR_1251                                          001/MSFTSEN/SENTINEL_AGENT_BASIC 000077S_TABU_NAMT-NL31000600    TABLE     CDPOS                                                                           U  O000000
AGR_1251                                          001/MSFTSEN/SENTINEL_AGENT_BASIC 000078S_TABU_NAMT-NL31000600    TABLE     E070                                                                            U  O000000
AGR_1251                                          001/MSFTSEN/SENTINEL_AGENT_BASIC 000079S_TABU_NAMT-NL31000600    TABLE     SWWLOGHIST                                                                      U  O000000
AGR_1251                                          001/MSFTSEN/SENTINEL_AGENT_BASIC 000080S_TABU_NAMT-NL31000600    TABLE     SWWWIHEAD                                                                       U  O000000
AGR_1251                                          001/MSFTSEN/SENTINEL_AGENT_BASIC 000081S_TABU_NAMT-NL31000600    TABLE     TBTCO                                                                           U  O000000
AGR_1251                                          001/MSFTSEN/SENTINEL_AGENT_BASIC 000082S_TABU_NAMT-NL31000600    TABLE     TSP01                                                                           U  O000000
AGR_1251                                          001/MSFTSEN/SENTINEL_AGENT_BASIC 000083S_RFC     T-NL31000600    RFC_NAME  BAPI_XMI_SET_AUDITLEVEL                                                         U  O000006
AGR_1251                                          001/MSFTSEN/SENTINEL_AGENT_BASIC 000084S_TABU_NAMT-NL31000600    TABLE     ADCP                                                                            U  O000000
AGR_1251                                          001/MSFTSEN/SENTINEL_AGENT_BASIC 000085S_TABU_NAMT-NL31000600    TABLE     AGR_AGRS                                                                        U  O000000
AGR_1251                                          001/MSFTSEN/SENTINEL_AGENT_BASIC 000086S_TABU_NAMT-NL31000600    TABLE     USR05                                                                           U  O000000
AGR_1251                                          001/MSFTSEN/SENTINEL_AGENT_BASIC 000087S_TABU_NAMT-NL31000600    TABLE     USRSTAMP                                                                        U  O000000
AGR_1251                                          001/MSFTSEN/SENTINEL_AGENT_BASIC 000088S_RFC     T-NL31000600    RFC_NAME  SUSR_USER_AUTH_FOR_OBJ_GET                                                      U  O000006
AGR_1251                                          001/MSFTSEN/SENTINEL_AGENT_BASIC 000089S_TABU_NAMT-NL31000600    TABLE     AGR_FLAGS                                                                       U  O000000
AGR_TEXTS                                         001/MSFTSEN/SENTINEL_AGENT_BASIC E00000Required Authorizations for Sentinel
AGR_FLAGS                                         001/MSFTSEN/SENTINEL_AGENT_BASIC COLL_AGR  SENTINEL    20220731120608SENTINEL    20220731120608
AGR_FLAGS                                         001/MSFTSEN/SENTINEL_AGENT_BASIC DEVCLASS  SENTINEL    20220731120608SENTINEL    20220731120608
AGR_FLAGS                                         001/MSFTSEN/SENTINEL_AGENT_BASIC FORCE_MIX SENTINEL    20220731120608SENTINEL    20220801093413
AGR_FLAGS                                         001/MSFTSEN/SENTINEL_AGENT_BASIC FORCE_YEL SENTINEL    20220731130858SENTINEL    20220801093415
AGR_FLAGS                                         001/MSFTSEN/SENTINEL_AGENT_BASIC MASTER_LANSENTINEL    20220731120608SENTINEL    20220731120608E
AGR_FLAGS                                         001/MSFTSEN/SENTINEL_AGENT_BASIC RESP_USER SENTINEL    20220731120608SENTINEL    20220731120608
AGR_FLAGS                                         001/MSFTSEN/SENTINEL_AGENT_BASIC SAP_SOURCESENTINEL    20220731120608SENTINEL    20220731120608/MSFTSEN/SENTINEL_CONNECTOR
AGR_TIME                                          001/MSFTSEN/SENTINEL_AGENT_BASIC PROFILE   SENTINEL    20220731120608000000000000000SENTINEL    20220801093413000000000000000
AGR_LSD                                           001/MSFTSEN/SENTINEL_AGENT_BASIC                               E
